:100000000C942A000C943F000C943F000C943F0089
:100010000C943F000C943F000C943F000C943F0064
:100020000C943F000C943F000C943F000C943F0054
:100030000C943F000C943F000C943F000C943F0044
:100040000C943F000C943F000C943F000C943F0034
:100050000C943F0011241FBECFE5D8E0DEBFCDBF1A
:1000600010E0A0E6B0E0E8E6F2E002C005900D92F4
:10007000A637B107D9F70E94E9000C9432010C941D
:100080000000CF93C82F82958F7080610E941F015E
:10009000C39A8FE99FE00197F1F700C00000C39871
:1000A0008C2F8F7080610E941F01C39A8FE99FE09F
:1000B0000197F1F700C00000C398CF910895CF9346
:1000C000C82F82958F700E941F01C39A8FE99FE00D
:1000D0000197F1F700C00000C3988C2F8F700E9429
:1000E0001F01C39A8FE99FE00197F1F700C000005C
:1000F000C398CF910895BB9AC39A80E30E945F0092
:100100008FE99FE00197F1F700C0000080E30E94B3
:100110005F008FE99FE00197F1F700C0000080E3E6
:100120000E945F008FE99FE00197F1F700C0000097
:1001300082E00E945F0088E20E945F008FE99FE0FA
:100140000197F1F700C000008CE00E945F008FE98A
:100150009FE00197F1F700C0000081E00E945F007E
:100160008FE99FE00197F1F700C0000082E00E9454
:100170005F008FE99FE00197F1F700C0000086E083
:100180000E945F008FE99FE00197F1F700C0000037
:1001900080E80E945F008FE99FE00197F1F700C0BF
:1001A00000000895CF93DF93EC018881882331F01C
:1001B00021960E94410089918111FBCFDF91CF915F
:1001C000089580580E945F00089580540E945F0047
:1001D0000895CF93DF93CDB7DEB765970FB6F89448
:1001E000DEBF0FBECDBF87E0E0E6F0E0DE01119696
:1001F00001900D928A95E1F78EE0E7E6F0E0DE01EE
:10020000189601900D928A95E1F70E9418010E94BC
:100210007B0085E00E94E100CE0101960E94D200A1
:1002200081E00E94E500CE0108960E94D200F1CF45
:1002300087B3876087BB0895C09AC0980895CF930D
:10024000DF93D82FC8E0DD2314F4C29A01C0C2980E
:100250000E941C01DD0FC150B1F70E941C01DF910B
:08026000CF910895F894FFCF3F
:10026800476F6272616E00536869667420526567F1
:06027800204C434400008D
:00000001FF
